{
  "transactions": [
    {
      "hash": "0x0ac420d9964c6a10c60f004b93ddcbbaf9ebe8cc5968bc795a4b17b8fc778300",
      "transactionType": "CALL",
      "contractName": null,
      "contractAddress": "0x12f7dd127d66d3b549cbefc8fd0157606a5eda32",
      "function": "claim(uint256,address,uint256,bytes32[])",
      "arguments": [
        "0",
        "0xf39Fd6e51aad88F6F4ce6aB8827279cffFb92266",
        "1000",
        "[0x355e3e92b151ff54d129b1e577ed25c5616200945e1895490b29e2857cac0dd7, 0xe9ed8d0ed16806576d094c3dfb33f68f0623af88812564f6a11fe717d4812df4]"
      ],
      "transaction": {
        "from": "0x1f9162adf495696c72be2473e62c51b7b6fd2e50",
        "to": "0x12f7dd127d66d3b549cbefc8fd0157606a5eda32",
        "gas": "0x1f6e5",
        "value": "0x0",
        "input": "0x2e7ba6ef0000000000000000000000000000000000000000000000000000000000000000000000000000000000000000f39fd6e51aad88f6f4ce6ab8827279cfffb9226600000000000000000000000000000000000000000000000000000000000003e800000000000000000000000000000000000000000000000000000000000000800000000000000000000000000000000000000000000000000000000000000002355e3e92b151ff54d129b1e577ed25c5616200945e1895490b29e2857cac0dd7e9ed8d0ed16806576d094c3dfb33f68f0623af88812564f6a11fe717d4812df4",
        "nonce": "0x18",
        "chainId": "0xaa36a7"
      },
      "additionalContracts": [],
      "isFixedGasLimit": false
    }
  ],
  "receipts": [
    {
      "status": "0x1",
      "cumulativeGasUsed": "0x15f2cf9",
      "logs": [
        {
          "address": "0x074bc223a9c9efab5301cc4f90fd54483d03ef53",
          "topics": [
            "0xddf252ad1be2c89b69c2b068fc378daa952ba7f163c4a11628f55a4df523b3ef",
            "0x00000000000000000000000012f7dd127d66d3b549cbefc8fd0157606a5eda32",
            "0x000000000000000000000000f39fd6e51aad88f6f4ce6ab8827279cfffb92266"
          ],
          "data": "0x00000000000000000000000000000000000000000000000000000000000003e8",
          "blockHash": "0xe629b0cf25f8fffc9221c8de6569f6559e41a91ea2f6ee6b9d1fa411b8f0d45c",
          "blockNumber": "0x8cba02",
          "blockTimestamp": "0x68cace28",
          "transactionHash": "0x0ac420d9964c6a10c60f004b93ddcbbaf9ebe8cc5968bc795a4b17b8fc778300",
          "transactionIndex": "0x18d",
          "logIndex": "0x37",
          "removed": false
        },
        {
          "address": "0x12f7dd127d66d3b549cbefc8fd0157606a5eda32",
          "topics": [
            "0x4ec90e965519d92681267467f775ada5bd214aa92c0dc93d90a5e880ce9ed026",
            "0x0000000000000000000000000000000000000000000000000000000000000000",
            "0x000000000000000000000000f39fd6e51aad88f6f4ce6ab8827279cfffb92266"
          ],
          "data": "0x00000000000000000000000000000000000000000000000000000000000003e8",
          "blockHash": "0xe629b0cf25f8fffc9221c8de6569f6559e41a91ea2f6ee6b9d1fa411b8f0d45c",
          "blockNumber": "0x8cba02",
          "blockTimestamp": "0x68cace28",
          "transactionHash": "0x0ac420d9964c6a10c60f004b93ddcbbaf9ebe8cc5968bc795a4b17b8fc778300",
          "transactionIndex": "0x18d",
          "logIndex": "0x38",
          "removed": false
        }
      ],
      "logsBloom": "0x00000000000000000000008000000000000000000000000000000000000000000000000000000000000000000000000000000000000000000000040000000000000000000000000000000008000000000000000000000000000000000000000000000000020000000000000100000800000000000000000080000010000000000000000000000100000000000000000040000000000000000000000020000000000000000080000000040000000002000000000000000000000000000000000000000002000000200080000000000000800000002000000000000000000020000000000000000000000000000000000000000000000020000000000000000000",
      "type": "0x2",
      "transactionHash": "0x0ac420d9964c6a10c60f004b93ddcbbaf9ebe8cc5968bc795a4b17b8fc778300",
      "transactionIndex": "0x18d",
      "blockHash": "0xe629b0cf25f8fffc9221c8de6569f6559e41a91ea2f6ee6b9d1fa411b8f0d45c",
      "blockNumber": "0x8cba02",
      "gasUsed": "0x16c17",
      "effectiveGasPrice": "0x14eab1",
      "from": "0x1f9162adf495696c72be2473e62c51b7b6fd2e50",
      "to": "0x12f7dd127d66d3b549cbefc8fd0157606a5eda32",
      "contractAddress": null
    }
  ],
  "libraries": [],
  "pending": [],
  "returns": {},
  "timestamp": 1758121509771,
  "chain": 11155111,
  "commit": "db99f98"
}